:100000000C9462000C948A000C948A000C948A0070
:100010000C948A000C948A000C948A000C948A0038
:100020000C948A000C948A000C948A000C948A0028
:100030000C948A000C948A000C948A000C948A0018
:100040000C942B030C948A000C948A000C948A0064
:100050000C948A000C948A000C948A000C948A00F8
:100060000C948A000C948A000000000024002700F1
:100070002A0000000000250028002B0000000000DE
:1000800023002600290004040404040404040202DA
:100090000202020203030303030301020408102007
:1000A0004080010204081020010204081020000012
:1000B0000008000201000003040700000000000027
:1000C00000004B0511241FBECFEFD8E0DEBFCDBF2F
:1000D00011E0A0E0B1E0E2EEFAE002C005900D927E
:1000E000A83FB107D9F722E0A8EFB1E001C01D9207
:1000F000A931B207E1F710E0C2E6D0E004C02197D1
:10010000FE010E946905C136D107C9F70E94750337
:100110000C946F050C940000833081F028F481303A
:1001200099F08230A9F008958730A9F08830C9F09D
:100130008430B1F4809180008F7D03C08091800075
:100140008F7780938000089584B58F7784BD08955C
:1001500084B58F7DFBCF8091B0008F778093B00006
:1001600008958091B0008F7DF9CFCF93DF93282F32
:1001700030E0F901E255FF4F8491F901E656FF4F57
:10018000D491F901EA57FF4FC491CC23A1F081111A
:100190000E948C00EC2FF0E0EE0FFF1FE458FF4FA1
:1001A000A591B491EC91ED2381E090E009F480E019
:1001B000DF91CF91089580E090E0FACF1F93CF9325
:1001C000DF93282F30E0F901E255FF4F8491F901C8
:1001D000E656FF4FD491F901EA57FF4FC491CC2363
:1001E000A9F0162F81110E948C00EC2FF0E0EE0F89
:1001F000FF1FEE58FF4FA591B4918FB7F894EC9183
:10020000111108C0D095DE23DC938FBFDF91CF9111
:100210001F910895DE2BF8CFCF93DF9390E0FC0180
:10022000E656FF4F24918A579F4FFC018491882303
:10023000D1F090E0880F991FFC01E859FF4FA5917C
:10024000B491FC01EE58FF4FC591D49161110EC0DD
:100250009FB7F8948C91E22FE0958E238C932881A0
:10026000E223E8839FBFDF91CF9108958FB7F89481
:10027000EC91E22BEC938FBFF6CF3FB7F8948091CF
:10028000FD019091FE01A091FF01B091000226B501
:10029000A89B05C02F3F19F00196A11DB11D3FBFBE
:1002A000BA2FA92F982F8827BC01CD01620F711D8D
:1002B000811D911D42E0660F771F881F991F4A9587
:1002C000D1F708958F929F92AF92BF92CF92DF9213
:1002D000EF92FF924B015C010E943D016B017C019A
:1002E0000E943D016C197D098E099F09683E73408B
:1002F00081059105A8F321E0821A9108A108B108AF
:1003000088EEC80E83E0D81EE11CF11C8114910414
:10031000A104B10429F7FF90EF90DF90CF90BF9038
:10032000AF909F908F900895AF92BF92CF92DF923F
:10033000EF92FF920F931F93CF93DF936C017B019A
:100340008B01040F151FEB015E01AE18BF08C0172B
:10035000D10759F06991D601ED91FC910190F0819E
:10036000E02DC6010995892B79F7C501DF91CF9161
:100370001F910F91FF90EF90DF90CF90BF90AF90C3
:100380000895089590E080E00895FC010190002018
:10039000E9F73197AF01481B590BBC0181E092E0AE
:1003A0000C949401CF93DF93EC0160E08E810E9466
:1003B000DE0061E08E810E94DE0060E08E810E949E
:1003C000DE008BE891E00197F1F7DF91CF9108957E
:1003D000CF92DF92EF92FF920F931F93CF93DF9311
:1003E0006C017C0187E0E80EF11CD0E0C0E0062F34
:1003F00010E0B8010C2E02C0759567950A94E2F7DB
:100400006170F70181917F010E94DE002196C43066
:10041000D10579F7C601DF91CF911F910F91FF9020
:10042000EF90DF90CF900C94D201CF92DF92EF92B9
:10043000FF920F931F93CF93DF93EC01F62E642F5F
:100440008C810E94DE008D818F3F19F060E00E9458
:10045000DE000F2D10E08F8584FF25C06E0187E040
:10046000C80ED11CF12CE12CB8010E2C02C07595E0
:1004700067950A94E2F76170F60181916F010E941D
:10048000DE00FFEFEF1AFF0A88E0E816F10461F7DB
:10049000CE01DF91CF911F910F91FF90EF90DF90F0
:1004A000CF900C94D201B80184E0759567958A9538
:1004B000E1F7CE010E94E8016F2DCE01DF91CF91CF
:1004C0001F910F91FF90EF90DF90CF900C94E80177
:1004D00040E0682F81E092E00C94150281E00E94D8
:1004E00068028BE39FE10197F1F70895CF93DF93C3
:1004F000823029F4909110029860909310028093BA
:1005000014021092150280E48093160280E1809319
:10051000170280E58093180261E0809105020E9435
:100520000C01809106028F3F19F061E00E940C01DE
:1005300061E0809107020E940C01C1E0D2E09E01BF
:10054000215032408091100284FD0BC084E090E085
:1005500021962817390744F461E08E810E940C012E
:10056000EECF88E090E0F4CF8BE39DE00197F1F7C8
:1005700060E0809105020E94DE0060E08091070249
:100580000E94DE00809106028F3F19F060E00E9419
:10059000DE008091100284FD34C063E081E092E0CF
:1005A0000E94E801CBE4D6E4CE010197F1F763E0C5
:1005B00081E092E00E94E8012197F1F763E081E099
:1005C00092E00E94E80183E592E00197F1F762E092
:1005D00081E092E00E94E8018091100280620E9416
:1005E000680284E0809311028CE00E9468020E94FD
:1005F0006E0282E08093120286E0DF91CF910C942C
:10060000680280620E9468028BE496E40197F1F729
:100610008091100280620E94680283E592E0019757
:10062000F1F78091100280620E946802D5CF90910C
:100630001402891710F08FEF890FE82FF0E0EF5FB9
:10064000FD4F848980680C94680241E00E94150285
:1006500081E090E008951F920F920FB60F9211243F
:100660002F933F938F939F93AF93BF938091F90103
:100670009091FA01A091FB01B091FC013091F80139
:1006800023E0230F2D3758F50196A11DB11D2093AE
:10069000F8018093F9019093FA01A093FB01B093C4
:1006A000FC018091FD019091FE01A091FF01B091AC
:1006B00000020196A11DB11D8093FD019093FE01E2
:1006C000A093FF01B0930002BF91AF919F918F91D2
:1006D0003F912F910F900FBE0F901F90189526E815
:1006E000230F0296A11DB11DD2CF789484B58260EC
:1006F00084BD84B5816084BD85B5826085BD85B5C6
:10070000816085BD80916E00816080936E00109243
:1007100081008091810082608093810080918100BE
:10072000816080938100809180008160809380004F
:100730008091B10084608093B1008091B0008160AD
:100740008093B00080917A00846080937A008091D9
:100750007A00826080937A0080917A008160809331
:100760007A0080917A00806880937A001092C100AC
:1007700082E00E94760261E081E00E940C0161E06B
:1007800087E00E940C0160E08EE00E940C0160E0B6
:100790008FE00E940C0160E080E10E940C0160E0AB
:1007A00081E10E940C0160E082E10E940C0160E0A6
:1007B00083E10E940C0160E080E00E940C01C0E433
:1007C00000E010E0C0937C0080917A008064809308
:1007D0007A0080917A0086FDFCCF8091780090911C
:1007E0007900892B09F44EC080E00E9417038CE049
:1007F00091E00E94C50181E00E94170386E191E02B
:100800000E94C50168E873E180E090E00E94620107
:100810000E946E0261E081E00E94DE0061E087E0FC
:100820000E94DE0080E00E94170387E291E00E94B0
:10083000C50181E00E94170381E391E00E94C50198
:1008400068EB7BE080E090E00E94620160E081E084
:100850000E94DE0068EE73E080E090E00E9462019A
:1008600061E081E00E94DE0060E273E080E090E001
:100870000E94620160E081E00E94DE0060E087E0AB
:100880000E94DE008FE00E94B500019709F0D9C0F8
:1008900080E00E9417038CE391E00E94C50161E0B3
:1008A00087E00E94DE0060ED77E080E090E00E944B
:1008B000620181E00E94170389E491E00E94C50172
:1008C00068E873E180E090E00E94620180E10E94AC
:1008D000B500019709F0BCC080E00E94170389E5CC
:1008E00091E00E94C50161E087E00E94DE0060EDBA
:1008F00077E080E090E00E94620181E00E941703AF
:1009000087E691E00E94C50168E873E180E090E02D
:100910000E94620181E10E94B500019709F09FC029
:1009200080E00E94170387E791E00E94C50161E023
:1009300087E00E94DE0060ED77E080E090E00E94BA
:10094000620181E00E94170387E891E00E94C501DF
:1009500068E873E180E090E00E94620182E10E9419
:10096000B500019709F082C080E00E94170384E976
:1009700091E00E94C50161E087E00E94DE0060ED29
:1009800077E080E090E00E94620181E00E9417031E
:1009900083EA91E00E94C50168E873E180E090E09D
:1009A0000E94620183E10E94B500019709F065C0D1
:1009B00080E00E94170382EB91E00E94C50161E094
:1009C00087E00E94DE0060ED77E080E090E00E942A
:1009D000620181E00E9417038FEB91E00E94C50144
:1009E00068E873E180E090E00E94620180E00E948C
:1009F000B500019709F048C080E00E94170380ED20
:100A000091E00E94C50161E087E00E94DE0060ED98
:100A100077E080E090E00E94620181E00E9417038D
:100A200082EE91E00E94C50168E873E180E090E009
:100A30000E9462010115110509F4C4CE0E94000054
:100A4000C1CE60E087E00E94DE000E946E023ECFD1
:100A500060E087E00E94DE000E946E025BCF60E0F3
:100A600087E00E94DE000E946E0278CF60E087E09F
:100A70000E94DE000E946E0295CF60E087E00E9437
:100A8000DE000E946E02B2CF60E087E00E94DE00CE
:100A90000E946E02CFCFE1E0F2E01382128284E086
:100AA00091E0918380838CE084838FEF85838BE05A
:100AB000868385E0878384E0808783E0818782E086
:100AC00082871386148615861686178681E00C9415
:100AD0007602EE0FFF1F0590F491E02D0994F89433
:020AE000FFCF46
:100AE2000000000025039401C201C10120205765C6
:100AF2006C636F6D6500204D79207265737461754A
:100B020072616E74212000434845434B205448458E
:100B120000484F54454C204D454E55004D4F4E44D4
:100B22004159204F4646455200425559204F4E45A5
:100B320020474554204F4E45005455455344415992
:100B4200204F4646455200323025204F464620422D
:100B5200555247455253005745444E455344415917
:100B6200204F464645520046524545204445535380
:100B7200455254005448555253444159204F464619
:100B8200455200424F474F20424556455241474544
:100B92005300465249444159204F4646455200337C
:100BA2003025204F46462044656C6976657279008F
:100BB20053415420414E442053554E20434F4D4201
:100BC2004F0046414D494C59204D45414C5320322E
:080BD2003525204F46460000C6
:00000001FF
